:020000040000FA
:060000000A128A11FC2F18
:10074E00003083120313C2000030C1000030C0001D
:10075E000030BF008E018F01071502308312031384
:10076E00BE00BE0BB82B0000831203130711BF2B64
:10077E00871DC22BC32BBF2B1014C52B8719C82B5B
:10078E00C92BC52B10104230A3006B30A20047308E
:10079E00A100AE30A0000E08F0000F08F100F2012B
:1007AE00F30100300A128A1131250A128A117308D8
:1007BE0083120313A7007208A6007108A500700823
:1007CE00A4000A128A11F3250A128A118312031346
:1007DE002308C2002208C1002108C0002008BF0063
:1007EE004208BD004108BC004008BB003F08BA00EB
:1007FE00002C080083120313D40183160313860101
:10080E0083120313860183160313071187158312B0
:10081E0003131012901290108801831603130910FF
:10082E000616192C83120313861A1E2C1F2C892CC4
:10083E0009140A128A11A7230A128A1183120313AA
:10084E003D08D3003C08D2003B08D1003A08D00046
:10085E005308A7005208A6005108A5005008A4008E
:10086E004030A300A030A2000030A1000030A00054
:10087E000A128A11F3250A128A118312031323080E
:10088E00C6002208C5002108C4002008C3000A12B1
:10089E008A1195240A128A11831203134308CE007B
:1008AE004E08D400682C013086007E2C0530860060
:1008BE007E2C073086007E2C0F3086007E2C860123
:1008CE007E2C5408CE00CF014F08003A0319702C2D
:1008DE00662C4E08013A03195A2C033A03195D2C63
:1008EE00013A0319602C073A0319632C662C8230E7
:1008FE0083120313CF00DD30CE00CE0B842CCF0B32
:10090E00842C192C861E8C2C8D2C192C0910192C2C
:10091E00192C192C192C0A128A1100288312031370
:10092E004308C7004408C8004508C9004608CA0065
:10093E000310490D4A0DCB004B08CD004D08031D89
:10094E00A92CAA2CB42C0030C6000030C5000030F3
:10095E00C4000030C300302D302D4308C7004408BA
:10096E00C8004508C9004608CA001F300310CA0C4B
:10097E00C90CC80CC70CFF3E031DBD2C4708CB008D
:10098E004B08CC00C517FF30C305FF30C405FF3040
:10099E00C5050030C6059630CD02CD1FD72CD82CFC
:1009AE00FD2C4D08803A973E0318DE2CDF2CEA2CE6
:1009BE000030C6000030C5000030C4000030C30057
:1009CE00302D302DEA2C01300310C60CC50CC40C92
:1009DE00C30CFF3E031DEB2C0130C7004708CD07AB
:1009EE00031DFA2CFB2CEA2C202D202D20304D023D
:1009FE00031C022D032D192D0030C6000030C5003A
:100A0E000030C4000030C300302D302D192D0130C0
:100A1E00C7000310C30DC40DC50DC60DC70B102D99
:100A2E000130CD024D08031D1D2D1E2D0E2D202D26
:100A3E00202D4C080319242D252D302DC309C40952
:100A4E00C509C609C30A0319C40A0319C50A03193D
:100A5E00C60A0800F80078080319362D372D4B2DDD
:100A6E00F31F3A2D3B2D4B2D7009FA007109FB0037
:100A7E007209FC007309FD00FA0A0319FB0A031937
:100A8E00FC0A0319FD0A532D7308FD007208FC00C1
:100A9E007108FB007008FA00730872047104700488
:100AAE00031D5A2D5B2D652D0030F3000030F20032
:100ABE000030F1000030F000F22DF22D9630F400EF
:100ACE007408F900782D0130F4007408F90701302C
:100ADE000310FD0CFC0CFB0CFA0CFF3E031D6F2DDE
:100AEE00782DFE307D05031D7D2D7E2D6A2D9B2DCF
:100AFE009B2D0130F4007408F9070130FA0700301D
:100B0E0003180130FB07003003180130FC070030DA
:100B1E0003180130FD0701300310FD0CFC0CFB0C1B
:100B2E00FA0CFF3E031D932DFF307D05031DA02DF6
:100B3E00A12D802DAF2DAF2D0130F9020130F40023
:100B4E000310FA0DFB0DFC0DFD0DF40BA72DAF2DB3
:100B5E00FC1BB22DB32DBA2D023079020318B82D1D
:100B6E00B92DA32DBA2D7918BD2DBE2DC62DFF3052
:100B7E00FA05FF30FB057F30FC05FF30FD05031045
:100B8E00F90C7908F400F501F601F701183003109D
:100B9E00F40DF50DF60DF70DFF3E031DCE2D740869
:100BAE00FA047508FB047608FC047708FD0478083F
:100BBE000319E22DE32DE92DF31FE62DE72DE92D87
:100BCE00FD17E92D7D08F3007C08F2007B08F1008B
:100BDE007A08F000F22D08008312031327088039DB
:100BEE00A8002808B1002708A8002807A90029088E
:100BFE00B800A61F032E042E062E3814062E380813
:100C0E0003190A2E0B2E1C2E380A031D0F2E102E22
:100C1E00192E0030A7000030A6000030A5000030CD
:100C2E00A400192EA617A701252E0030A70000300C
:100C3E00A6000030A5000030A400252E2308803920
:100C4E00A8002808B1062308A8002807A90029082B
:100C5E00B900A21F332E342E362E3914362E3908F3
:100C6E0003193A2E3B2E4C2E390A031D3F2E402ED1
:100C7E00492E0030A3000030A2000030A100003049
:100C8E00A000492EA217A301542E0030A30000305D
:100C9E00A2000030A1000030A0002308220421048D
:100CAE002004031D5B2E5C2E762E0030A700003034
:100CBE00A6000030A5000030A4008030A6047F30CE
:100CCE00A7043108A8002808A7042708A3002608AF
:100CDE00A2002508A1002408A000FB2FFB2F380836
:100CEE00031D7A2E7B2E8D2E0030A7000030A6001D
:100CFE000030A5000030A4002708A3002608A2009B
:100D0E002508A1002408A000FB2FFB2F3908A800FE
:100D1E00A901A809A909A80A0319A90A38082807C8
:100D2E00AA0029080318290AAB002A087F3EB20040
:100D3E002B080318013E003EB3002708B00026081A
:100D4E00AF002508AE002408AD000030A70000302B
:100D5E00A6000030A5000030A4000030B70000301F
:100D6E00B6000030B5000030B400B9010C2F3908C0
:100D7E000319C22EC32EE52E0130A8000310AD0DAF
:100D8E00AE0DAF0DB00DA80BC52E0130A80003108F
:100D9E00A40DA50DA60DA70DA80BCE2EB71FD82EF0
:100DAE00D92EDB2E2414DB2E0130A8000310B40D37
:100DBE00B50DB60DB70DA80BDD2EE52E23083002AE
:100DCE00031DF32E22082F02031DF32E21082E02DF
:100DDE00031DF32E20082D02031CF62EF72E072FCF
:100DEE0037172008AD022108031C210FAE0222087E
:100DFE00031C220FAF022308031C230FB002072F80
:100E0E000130A8002808B9070C2F1A303902031C2C
:100E1E00112F122FBE2E132F30082F042E042D0447
:100E2E0003191A2F1B2F3D2F34143D2F3D2F013048
:100E3E00A8000310A40DA50DA60DA70DA80B202F1D
:100E4E00B71F2A2F2B2F2D2F24142D2F0130A80042
:100E5E000310B40DB50DB60DB70DA80B2F2FFF3027
:100E6E00B2070318B30AFF30B3073D2FA61F402F5A
:100E7E00412F1E2F422FB901B71F462F472F672F25
:100E8E00FF303405A800FF303505A900FF303605C8
:100E9E00AA007F303705AB002B082A04290428044A
:100EAE0003195A2F5B2F5E2FB901B90A672F241C25
:100EBE00612F622F672FB901B90A672F672F672F2E
:100ECE00390803196B2F6C2F9F2F0130A4070030A8
:100EDE0003180130A507003003180130A6070030B3
:100EEE0003180130A707271C7D2F7E2F9F2F240864
:100EFE00A8002508A9002608AA002708AB00013083
:100F0E00AC002B0DAB0CAA0CA90CA80CAC0B882FAB
:100F1E002B08A7002A08A6002908A5002808A40067
:100F2E000130B2070318B30A0030B3079F2F9F2F6B
:100F3E003308803AFF0080307F02031DA82FFF3058
:100F4E003202031CAB2FAC2FBB2FFF3083120313C7
:100F5E00B2000030B3000030A7000030A600003011
:100F6E00A5000030A400BB2F831203133308803A70
:100F7E00FF0080307F02031DC62F0130320203189E
:100F8E00C92FCA2FD72F83120313B201B30100301A
:100F9E00A7000030A6000030A5000030A400B1016B
:100FAE00831203133208A8002808B800381CE02F5B
:100FBE00E12FE32FA617E72F7F30A8002808A605FC
:100FCE003808A8000310280CA9002908A70031082A
:100FDE00A8002808A7042708A3002608A2002508B1
:100FEE00A1002408A000FB2F080083010A128A1119
:020FFE00012CC4
:02400E00F93F78
:00000001FF
